{"abi":[{"type":"constructor","inputs":[],"stateMutability":"nonpayable"},{"type":"function","name":"balanceOf","inputs":[{"name":"_owner","type":"address","internalType":"address"}],"outputs":[{"name":"","type":"uint256","internalType":"uint256"}],"stateMutability":"view"},{"type":"function","name":"decimals","inputs":[],"outputs":[{"name":"","type":"uint8","internalType":"uint8"}],"stateMutability":"pure"},{"type":"function","name":"name","inputs":[],"outputs":[{"name":"","type":"string","internalType":"string"}],"stateMutability":"pure"},{"type":"function","name":"totalSupply","inputs":[],"outputs":[{"name":"","type":"uint256","internalType":"uint256"}],"stateMutability":"pure"},{"type":"function","name":"transfer","inputs":[{"name":"_to","type":"address","internalType":"address"},{"name":"_value","type":"uint256","internalType":"uint256"}],"outputs":[],"stateMutability":"nonpayable"}],"bytecode":{"object":"0x608060405234801561001057600080fd5b5061001961002e565b33600090815260208190526040902055610172565b600061003c6012600a610148565b61004790606461015b565b905090565b634e487b7160e01b600052601160045260246000fd5b600181815b8085111561009d5781600019048211156100835761008361004c565b8085161561009057918102915b93841c9390800290610067565b509250929050565b6000826100b457506001610142565b816100c157506000610142565b81600181146100d757600281146100e1576100fd565b6001915050610142565b60ff8411156100f2576100f261004c565b50506001821b610142565b5060208310610133831016604e8410600b8410161715610120575081810a610142565b61012a8383610062565b806000190482111561013e5761013e61004c565b0290505b92915050565b600061015483836100a5565b9392505050565b80820281158282048414176101425761014261004c565b610501806101816000396000f3fe608060405234801561001057600080fd5b50600436106100575760003560e01c806306fdde031461005c57806318160ddd14610093578063313ce567146100a957806370a08231146100b8578063a9059cbb146100e1575b600080fd5b604080518082018252600c81526b26b0b73ab0b6102a37b5b2b760a11b6020820152905161008a91906102cf565b60405180910390f35b61009b6100f6565b60405190815260200161008a565b6040516012815260200161008a565b61009b6100c636600461033a565b6001600160a01b031660009081526020819052604090205490565b6100f46100ef36600461035c565b610114565b005b60006101046012600a610482565b61010f90606461048e565b905090565b6001600160a01b03821661017b5760405162461bcd60e51b815260206004820152602360248201527f43616e6e6f74207472616e7366657220746f20746865207a65726f206164647260448201526265737360e81b60648201526084015b60405180910390fd5b336000908152602081905260409020548111156101d15760405162461bcd60e51b8152602060048201526014602482015273496e73756666696369656e742062616c616e636560601b6044820152606401610172565b6001600160a01b03821660009081526020819052604080822054338352908220546101fc91906104a5565b336000908152602081905260408120805492935084929091906102209084906104b8565b90915550506001600160a01b0383166000908152602081905260408120805484929061024d9084906104a5565b90915550506001600160a01b03831660009081526020819052604080822054338352912054829161027d916104a5565b146102ca5760405162461bcd60e51b815260206004820152601f60248201527f42616c616e6365206d69736d61746368206166746572207472616e73666572006044820152606401610172565b505050565b60006020808352835180602085015260005b818110156102fd578581018301518582016040015282016102e1565b506000604082860101526040601f19601f8301168501019250505092915050565b80356001600160a01b038116811461033557600080fd5b919050565b60006020828403121561034c57600080fd5b6103558261031e565b9392505050565b6000806040838503121561036f57600080fd5b6103788361031e565b946020939093013593505050565b634e487b7160e01b600052601160045260246000fd5b600181815b808511156103d75781600019048211156103bd576103bd610386565b808516156103ca57918102915b93841c93908002906103a1565b509250929050565b6000826103ee5750600161047c565b816103fb5750600061047c565b8160018114610411576002811461041b57610437565b600191505061047c565b60ff84111561042c5761042c610386565b50506001821b61047c565b5060208310610133831016604e8410600b841016171561045a575081810a61047c565b610464838361039c565b806000190482111561047857610478610386565b0290505b92915050565b600061035583836103df565b808202811582820484141761047c5761047c610386565b8082018082111561047c5761047c610386565b8181038181111561047c5761047c61038656fea264697066735822122052e99465178eac0dbc25c167586671da40d22ebc12c1fbf6024d21221af3c00664736f6c63430008190033","linkReferences":{}},"methodIdentifiers":{"balanceOf(address)":"70a08231","decimals()":"313ce567","name()":"06fdde03","totalSupply()":"18160ddd","transfer(address,uint256)":"a9059cbb"},"id":32}